:020000020000FC
:1000000014C0189518951895189518951895189561
:100010001895189518951895189518951895189578
:10002000189518951895189518950FE50DBF02E0CD
:100030000EBF07B3086007BB08B3086008BB01B375
:10004000006101BB02B3006102BB07B3006F07BBD5
:1000500041E050EE652F0CD0652F322F18BB50EECB
:1000600020B35223503EC1F75617A9F319D0F3CF4E
:1000700040FD06C041FD08C042FD0AC043FD0CC062
:1000800010EE442742E00BC010ED442744E007C0C7
:1000900010EB442748E003C010E7442741E00895EF
:1000A00040FD1BC041FD04C042FD09C043FD0EC020
:1000B00035FF1AC036FF1FC037FF16C029C035FFF5
:1000C0001AC036FF11C037FF16C022C035FF0CC062
:1000D00036FF11C037FF08C01BC035FF13C036FF05
:1000E0000AC037FF0FC014C008B3077F08BB02B3B4
:1000F000006102BB0DC008B3077F08BB02B30F7ECF
:1001000002BB06C008B3086008BB02B3006102BBB3
:02011000089550
:00000001FF
