:020000020000FC
:1000000014C014C11AC1189518951895189523C1D4
:1000100018951895189518951895189516C118954E
:10002000189518951895189518950FE50DBF02E0CD
:100030000EBF03E004BB3CD002E005BF00E40BBFF1
:1000400005B7086005BF0BB700680BBF06B10460B9
:1000500006B907B1006407B907B1006007B9339A60
:1000600000B7006A00BF359A0EB505600EBD05E009
:10007000000F000F0BBD00E00ABD05E0000F000FF0
:1000800009BD00E008BD0FB50F7F0FBD0EB50F7F96
:1000900008600EBD09B7086009BF7894FFCF00273C
:1000A00011270F3F0395E9F713951431D1F7089500
:1000B000A99A00E2A89AA8980A95E1F708954F77BF
:1000C000542F01D0089508E0550F30F0A998A89A50
:1000D000A8980A95C9F705C0A99AA89AA8980A9558
:1000E00099F70895E4B1F5B1319728F0319631963A
:1000F000F2FD0BC014C0DCDF40ECE1DF50ECE3DFCD
:1001000050ECE1DF50ECDFDF88C0D2DF42E9D7DF1F
:1001100050ECD9DF50ECD7DF50ECD5DF7EC02F2F6D
:1001200006E0FF0F0A95E9F71E2F02E016950A95E3
:10013000E9F7F12BEF0FFF27F21FF43081F0F330D6
:1001400061F0F23041F0F13021F0F03001F040EC9C
:1001500007C049EF05C044EA03C040EB01C049E9CC
:10016000EE0F70F1EE0FB0F0EE0F50F0EE0F20F04A
:1001700010EC20EC30EC51C010EC22E830EB4DC01C
:10018000EE0F20F019EF24EA32E947C019EF20E81A
:1001900030E843C0EE0F50F0EE0F20F014EA22E9F1
:1001A00030EC3BC010EB29EF30EB37C0EE0F20F006
:1001B00010EB28EF32E931C019E920EB30E82DC00F
:1001C000EE0FB0F0EE0F50F0EE0F20F012E920EC41
:1001D00030EC23C012E922E830EB1FC0EE0F20F014
:1001E00012E824EA32E919C012E820E830E815C024
:1001F000EE0F50F0EE0F20F018EF22E930EC0DC0BA
:1002000010E829EF30EB09C0EE0F20F010E828EFDE
:1002100032E903C010E920EB30E84ADF50DF512F0C
:1002200052DF522F50DF532F4EDF08950F931F934D
:1002300036DF379A1F910F9118950F931F932FDF79
:10024000379836DF1F910F9118950F931F934ADF50
:080250001F910F9118951895FC
:00000001FF
