:020000020000FC
:1000000014C0189518951895189518951895189561
:100010001895CCC418951895189518951895189595
:10002000189518951895189518950FE50DBF02E0CD
:100030000EBF01B3006201BB0EB5087F03600EBDA9
:100040000EB5077E08610EBD0FB50C7F03600FBDB6
:100050000FB50F7300640FBD03B7087F0460077B03
:1000600000600F7C006003BF09B7016009BF78948E
:100070000FEF0A95F1F730D00FEF0A95F1F7F8CFAF
:100080000ABD00E00DBD0CBD03B7046003BF032F24
:100090000030F1F703B7087F03BF089503B704608A
:1000A00003BF032F0030F1F703B7087F03BF0895A4
:1000B00032E007E0E5DF33E005E0E2DF34E003E0D3
:1000C000DFDF38E002E0DCDF33E005E0D9DF089570
:1000D00039E00CEAD5DF089539E002EDD1DF08956B
:1000E00034E00EE1CDDF02E1CBDF02E1C9DF04E164
:1000F000C7DF02E1C5DF06E1C3DF0EE1C1DF0EE1CC
:10010000BFDF0EE1BDDF02E1BBDF02E1B9DF01E1EC
:10011000B7DF0DE0B5DF0FE0B3DF0FE0B1DF0BE1DC
:10012000AFDF0BE1ADDF01E1ABDF01E1A9DF02E110
:10013000A7DF04E1A5DF06E1A3DF0EE1A1DF02E115
:100140009FDF02E19DDF04E19BDF02E199DF06E131
:1001500097DF089536E00EE193DF0EE191DF0BE1CA
:100160008FDF0EE18DDF32E099DF36E006E188DFD8
:1001700008E186DF32E092DF36E00EE181DF0EE15A
:100180007FDF0BE17DDF0EE17BDF32E087DF36E0F2
:1001900004E176DF32E082DF36E006E171DF32E053
:1001A0007DDF36E00EE16CDF0EE16ADF0EE168DF35
:1001B00002E166DF06E164DF08E162DF0BE160DF98
:1001C00032E06CDF36E001E15BDF01E159DF02E1A3
:1001D00057DF32E063DF36E006E152DF04E150DF53
:1001E00006E14EDF32E05ADF36E0089534E012E0F7
:1001F00006E146DF0EE144DF31E050DF34E01A95DE
:10020000B9F706E13DDF08E13BDF08E139DF12E045
:1002100008E136DF0EE134DF31E040DF34E01A95EB
:10022000B9F708E12DDF06E12BDF06E129DF12E057
:1002300006E126DF0EE124DF31E030DF34E01A95FD
:10024000B9F706E11DDF08E11BDF08E119DF12E065
:1002500008E116DF0EE114DF1A95D1F708E110DF8F
:1002600006E10EDF34E01ADF34E012E033E006E1AD
:1002700007DF25E004E104DF2A95E1F724E003E14C
:10028000FFDE2A95E1F734E003E1FADE03E1F8DE70
:1002900004E1F6DE06E1F4DE08E1F2DE06E1F0DE7E
:1002A00006E1EEDE1A9511F7089534E012E004E15C
:1002B000E7DE06E1E5DE08E1E3DE31E0EFDE34E033
:1002C0000BE1DEDE02E1DCDE02E1DADE31E0E6DE79
:1002D00034E01A9561F706E1D3DE02E1D1DE02E1F6
:1002E000CFDE31E0DBDE34E006E1CADE08E1C8DE65
:1002F00004E1C6DE31E0D2DE34E004E1C1DE08E133
:10030000BFDE04E1BDDE06E1BBDE08E1B9DE31E0BF
:10031000C5DE34E00BE1B4DE0EE1B2DE0EE1B0DEAC
:10032000089535E004E1ACDE08E1AADE04E1A8DED0
:1003300008E1A6DE33E004E1A3DE04E1A1DE35E05E
:1003400006E19EDE08E19CDE0BE19ADE08E198DE24
:1003500004E196DE32E0A2DE35E00BE191DE08E159
:100360008FDE0BE18DDE08E18BDE04E189DE31E01A
:1003700095DE35E004E184DE0BE182DE04E180DE1F
:100380000BE17EDE04E17CDE06E17ADE08E178DE68
:100390000BE176DE0EE174DE08E172DE04E170DE70
:1003A00032E07CDE35E034E00BE16ADE08E168DE55
:1003B0000BE166DE08E164DE04E162DE33E06EDE5E
:1003C00034E004E15DDE04E15BDE02E159DE04E1DC
:1003D00057DE08E155DE08E153DE02E151DE04E1BB
:1003E0004FDE32E05BDE34E00EE14ADE0EE148DE55
:1003F00006E146DE04E144DE02E142DE02E140DEE7
:1004000004E13EDE06E13CDE32E048DE35E008E1B4
:1004100037DE08E135DE06E133DE08E131DE04E1F6
:100420002FDE32E03BDE35E006E12ADE08E128DEA1
:100430000EE126DE34E032DE35E0089533E004E1FB
:100440001FDE08E11DDE02E11BDE31E027DE33E0C6
:1004500004E116DE31E022DE33E00BE111DE31E0B3
:100460001DDE33E006E10CDE31E018DE33E008E1AA
:1004700007DE31E013DE33E00BE102DE31E00EDEB9
:1004800033E00EE1FDDD32E009DE33E008E1F8DDC6
:1004900004E1F6DD02E1F4DD31E000DE33E002E10B
:1004A000EFDD31E0FBDD33E002E1EADD00E1E8DD34
:1004B00031E0F4DD33E00DE0E3DD0FE0E1DD00E10C
:1004C000DFDD31E0EBDD33E002E1DADD31E0E6DD16
:1004D00033E00FE0D5DD31E0E1DD33E004E1D0DDF4
:1004E00032E0DCDD33E002E1CBDD31E0D7DD33E0CB
:1004F00000E1C6DD31E0D2DD33E00FE0C1DD31E007
:10050000CDDD33E000E1BCDD02E1BADD31E0C6DD86
:1005100033E008E1B5DD04E1B3DD31E0BFDD33E018
:1005200006E1AEDD31E0BADD33E002E1A9DD32E023
:10053000B5DD33E000E1A4DD02E1A2DD0FE0A0DDE6
:1005400031E0ACDD33E004E19BDD00E199DD31E039
:10055000A5DD33E002E194DD31E0A0DD33E002E12E
:100560008FDD31E09BDD33E004E18ADD0BE188DDE6
:1005700031E094DD33E008E183DD31E08FDD33E00D
:100580000BE17EDD31E08ADD33E00EE179DD32E042
:1005900085DD33E0089533E00EE172DD09E170DDC1
:1005A00032E07CDD33E004E16BDD31E077DD33E028
:1005B00004E166DD31E072DD33E004E161DD31E06C
:1005C0006DDD33E006E15CDD31E068DD33E004E160
:1005D00057DD03E155DD32E061DD33E004E150DD5C
:1005E00032E05CDD33E00FE04BDD09E149DD32E074
:1005F00055DD33E00BE144DD31E050DD33E00BE16C
:100600003FDD32E04BDD33E00BE13ADD09E138DD7F
:1006100032E044DD33E006E133DD32E03FDD33E05C
:1006200004E12EDD32E03ADD33E009E129DD32E09C
:1006300035DD33E00EE124DD09E122DD32E02EDD9F
:1006400033E004E11DDD31E029DD33E004E118DDB4
:1006500031E024DD33E004E113DD06E111DD04E1E6
:100660000FDD32E01BDD33E003E10ADD31E016DDB2
:1006700033E004E105DD32E011DD33E00FE000DDC1
:1006800009E1FEDC32E00ADD33E00BE1F9DC31E0C8
:1006900005DD33E00BE1F4DC32E000DD33E00BE1BB
:1006A000EFDC31E0FBDC33E009E1EADC31E0F6DCF1
:1006B00033E006E1E5DC32E0F1DC33E004E1E0DCEC
:1006C00009E1DEDC32E0EADC33E0089533E004E106
:1006D000D7DC31E0E3DC33E008E1D2DC31E0DEDC22
:1006E00033E008E1CDDC31E0D9DC33E004E1C8DC03
:1006F00008E1C6DC31E0D2DC33E008E1C1DC32E005
:10070000CDDC33E004E1BCDC31E0C8DC33E006E101
:10071000B7DC31E0C3DC33E008E1B2DC31E0BEDC61
:1007200033E00BE1ADDC31E0B9DC33E00EE1A8DC15
:1007300032E0B4DC33E000E1A3DC31E0AFDC33E0F5
:100740000FE09EDC00E19CDC02E19ADC08E198DC31
:1007500031E0A4DC33E008E193DC32E09FDC33E0FD
:1007600004E18EDC06E18CDC31E098DC33E008E16A
:1007700087DC31E093DC33E00BE182DC31E08EDCBE
:1007800033E00EE17DDC32E089DC33E0089533E0D4
:1007900052D00EE175DC32E081DC33E00EE170DC3A
:1007A0000EE16EDC31E07ADC33E05AD00BE168DC3C
:1007B00032E074DC33E069D008E162DC32E06EDC08
:1007C00033E00FE05DDC76D036D00EE159DC32E06C
:1007D00065DC33E030D00BE153DC32E05FDC33E04A
:1007E00054D00FE04DDC31E059DC33E00FE048DC61
:1007F00031E054DC33E00FE043DC31E04FDC33E048
:100800000FE03EDC32E04ADC33E00DE039DC52D070
:1008100069D031E043DC32E00FE032DC32E03EDC34
:1008200032E060D031E03ADC32E006E129DC32E04F
:1008300035DC32E008950EE123DC31E02FDC33E0DB
:1008400002E11EDC31E02ADC33E004E119DC31E0B6
:1008500025DC33E006E114DC31E020DC33E00895F0
:100860000EE10EDC31E01ADC33E002E109DC31E0BC
:1008700015DC33E004E104DC31E010DC33E006E1B8
:10088000FFDB31E00BDC33E008950BE1F9DB31E015
:1008900005DC33E000E1F4DB31E000DC33E002E1D1
:1008A000EFDB31E0FBDB33E004E1EADB31E0F6DBF8
:1008B00033E0089531E0F2DB33E00FE0E1DB31E0DB
:1008C000EDDB33E000E1DCDB31E0E8DB33E004E1E9
:1008D000D7DB31E0E3DB33E002E1D2DB32E0DEDB29
:1008E00033E0089532E002E1CBDB31E0D7DB32E0E8
:1008F00002E1C6DB31E0D2DB32E002E1C1DB31E014
:10090000CDDB32E002E1BCDB31E0C8DB32E002E10A
:10091000B7DB31E0C3DB32E002E1B2DB32E0BEDB69
:1009200032E002E1ADDB31E0B9DB32E00FE0A8DB21
:1009300031E0B4DB32E006E1A3DB31E0AFDB32E0F3
:1009400004E19EDB02E19CDB32E0A8DB32E015E053
:1009500000E196DB31E0A2DB32E01A95C9F702E153
:100960008FDB31E09BDB32E002E18ADB32E096DBB9
:1009700032E013E002E184DB31E090DB32E01A95F3
:10098000C9F704E17DDB31E089DB32E004E178DBAB
:1009900031E084DB32E002E173DB31E07FDB32E027
:1009A00004E16EDB32E07ADB32E008950A951895B7
:00000001FF
