:020000020000FC
:0200000014C02A
:10002A000FE50DBF02E00EBF00EF07BB03E004BB04
:10003A0002E005BB0027A89AA89803950032D9F7D1
:10004A0041E050EE652F0CD0652F322F18BB50EED1
:10005A0020B35223503EC1F75617A9F319D0F3CF54
:10006A0040FD06C041FD08C042FD0AC043FD0CC068
:10007A0010EE442742E00BC010ED442744E007C0CD
:10008A0010EB442748E003C010E7442741E00895F5
:10009A0040FD18C041FD04C042FD08C043FD0CC02C
:1000AA0035FF16C036FF18C037FF1AC035FF1CC00F
:1000BA0036FF1EC037FF20C035FF22C036FF24C0DE
:1000CA0037FF26C035FF28C036FF2AC037FF2CC0AD
:1000DA00332739EF2DD02BC0332734EA29D027C054
:1000EA00332730EB25D023C0332739E921D01FC06D
:1000FA00332732E91DD01BC0332732E819D017C085
:10010A00332738EF15D013C0332730E811D00FC08A
:10011A00332730E90DD00BC0332738E809D007C0A0
:10012A00332730EC05D003C0332739E801D00895CE
:10013A000027330F38F0A998A89AA8980395083091
:10014A00C1F706C0A99AA89AA8980395083089F712
:02015A00089506
:00000001FF
