:020000020000FC
:1000000014C0189518951895189518951895189561
:100010001895189518951895189518951895189578
:10002000189518951895189518950FE50DBF02E0CD
:100030000EBF0CE009B900B500B51AB10668106032
:100040000068006A006800BD1AB90AB108600AB900
:100050000AB100610AB978945F9BFECF12D03CB917
:100060005D9BFECF6060C1F36CB96627F9CFF4CF1A
:10007000002711270F3F0395E9F713951431D1F7A6
:1000800008955BB14CB15C7119F4342F339502C003
:100090006CB13FEF0895603011F06CB901C03CB90C
:1000A0000AB108600AB918950F930AB1077F0AB917
:1000B0000F9118950F93E5DF0F9118950F931F93EC
:1000C000D7DF9A9906C00AB108600AB90AB100617F
:1000D0000AB95F9BFECFD5DF0AB10F7E0AB90AB11C
:0A00E000077F0AB91F910F911895D0
:00000001FF
