:020000020000FC
:1000000014C0EDC0FDC01895189518951895189551
:1000100016C11895189518951895189506C1189534
:10002000189518951895189518951FE51DBF12E09D
:100030001EBF8C9A949A13E014BB4DD011E015BFEB
:1000400010E41BBF15B7146015BF1BB710681BBFAA
:1000500016B1146016B917B1106417B9839B01C0AB
:1000600005C017B1107E136017B904C017B1107E18
:10007000106017B910B7106C10BF359A339A1EB5BF
:10008000187F15601EBD1EB5177E18611EBD1FB5F9
:100090001C7F13601FBD1FB51F7C10631FBD13E0C5
:1000A0001BBD1FEF1ABD13E019BD1FEF18BD19B717
:1000B000146019BF54E178940000000000000000B3
:1000C0000000FACF112722271F3F1395E9F7239548
:1000D0002431D1F70895A99A10E2A89AA8981A9500
:1000E000E1F7089518E0440F30F0A998A89AA8986D
:1000F0001A95C9F705C0A99AA89AA8981A9599F7C8
:100100000895E4B1F5B1319728F031963196F4FDB8
:1001100005C00CC0E0DF40ECE5DF5BC0DCDF49EF91
:10012000E1DF40ECDFDF40ECDDDF53C03F2F14E0C8
:10013000FF0F1A95E9F70F2F2E2F14E026951A9529
:10014000E9F7F22B26950695202BF30FF20FF038E6
:1001500029F3FF0FFF0F20F1FF0F80F0FF0F30F0AA
:10016000FF0F08F020EC2FEF30E833C0FF0F18F03E
:1001700029EF32E82EC024EA39E92BC0FF0F40F006
:10018000FF0F18F020EB34EA24C029E930EC21C03D
:10019000FF0F18F029E930E81CC022E932E819C045
:1001A000FF0F90F0FF0F40F0FF0F18F022E839E941
:1001B00010C028EF34EA0DC0FF0F18F020E830EC33
:1001C00008C020E830E805C020E9FF0FFF0F32E843
:1001D00000C081DF422F86DF432F84DF08951F9305
:1001E0002F9370DF829B01C002C0379A06C03798F8
:1001F00023E01FEF29BD18BD6EDF2F911F911895C9
:100200001F932F935FDF3798839B01C005C017B101
:10021000107E136017B904C017B1107E106017B9B3
:10022000829B379A2F911F9118951F932F9314B18A
:1002300025B129BD18BD65DF2F911F9118951F931A
:100240002F93379901C005C05A9509F002C059DFB4
:0802500054E12F911F91189554
:00000001FF
