:020000020000FC
:1000000014C01EC729C718951895189518951895E6
:10001000189531C71895189518951895189518952D
:10002000189518951895189518950FE50DBF02E0CD
:100030000EBF8D9AD79ADF9AA59AAD9A07B3006F33
:1000400007BB91E0A0EDBA2F04B3036004BB64D0FA
:1000500003B70060006003BF09B7016009BF0EB5B8
:1000600008610EBD0FB5036000640FBD0CE009B957
:1000700000B500B51AB10668106000680068006835
:1000800000BD1AB90AB100610AB90AB108600AB91B
:1000900001E005BF00E40BBF05B7086005BF0BB763
:1000A00000680BBF7894213041F03FD02130D9F364
:1000B000A8D12130C1F3E1D1F9CF37D0FCE0C3950D
:1000C000FA95D9F320D29DD1203069F3203059F32D
:1000D00030FF172F1C1711F0FAD002C01ED100C03C
:1000E00049D105E0C00F0C2FCC5010F0C03009F4FE
:1000F000C02FE6CF14E100270F3F0395E9F71A95CB
:10010000D9F7089503B7046003BF012F0030F1F75A
:1001100003B7087F03BF08950F93A99A00E2A89A36
:10012000A8980A95E1F70F9108950F931F9330E077
:1001300080EC65D01F910F9108950F931F9331E0CC
:100140005ED01F910F91089590FD06C091FD07C0EC
:1001500092FD08C093FD09C060EE92E008C060ED1A
:1001600094E005C060EB98E002C060E791E008957C
:1001700090FD18C091FD04C092FD08C093FD0CC015
:1001800084FF16C086FF17C087FF18C084FF19C000
:1001900086FF1AC087FF1BC084FF1CC086FF1DC0DE
:1001A00087FF1EC084FF1FC086FF20C087FF21C0BD
:1001B00089EF71E021C084EA72E01EC080EB73E039
:1001C0001BC089E974E018C082E975E015C082E8B7
:1001D00076E012C088EF77E00FC080E878E00CC0CE
:1001E00080E979E009C088E87DE0089580EC70E05E
:1001F00003C089E87EE0089520FF01D008950F93A1
:100200001F9308E0303089F0893859F0413021F0EF
:10021000582F80EC112709C0182F852F512F112737
:1002200004C080EC50EC41E0112776DF880F30F0FD
:10023000A998A89AA8980A95C9F705C0A99AA89A52
:10024000A8980A9599F7303041F0103011F0412705
:1002500004C0852F139508E0E9CF1F910F910895F1
:1002600008E0880F30F0A998A89AA8980A95C9F7CD
:1002700005C0A99AA89AA8980A9599F708958EE8B2
:10028000EFDF88E8EDDF89EFEBDF87ECE9DF08954A
:10029000BF9382E9E5DF36DF81ECE2DF33DF86EC16
:1002A000DFDF30DF86ECDCDF2DDF86E8D9DF2ADF19
:1002B00082E9D6DF27DF82E9D3DF24DFB4E012E072
:1002C0008FEFCEDF1FDFBA95D9F7BF910895FF9367
:1002D0001AE0B3E0AD980EB503600EBD74D1F6E43C
:1002E000C1D0F1E4BFD0F9E4BDD0FCE4BBD0F8E26A
:1002F000B9D0B8D0B7D0FDE0B5D0C1DF0EB5087F1A
:100300000EBD00DFAD9A08DF12E0FCDE1AE0BA9500
:1003100009F7FDE0A7D0FF910895FF93D395FCDE88
:1003200015E0B3E0DF980EB503600EBD3AD1F3E5FA
:1003300099D0F5E597D0F3E495D094D0F5E492D038
:10034000F3E590D08FD0F1E28DD08CD0F9E28AD055
:1003500089D0FDE087D0DF9A9BDFDF980EB5087F5C
:100360000EBDD0DEDF9A15E0BA95E1F6FDE07AD059
:10037000FF910895D1DE1D2FDA5018F089EF70DF5C
:100380000FC0D12FD93021F1D83001F1D730E1F0B1
:10039000D630C1F0D530A1F0D43081F0D33061F047
:1003A000D23041F0D13021F0D03001F080EC12C0D9
:1003B00089EF10C084EA0EC080EB0CC089E90AC046
:1003C00082E908C082E806C088EF04C080E802C065
:1003D00080E900C045DF0895B7DEBA2F872F68BBDC
:1003E000A0ED70B3A723A03DC1F7AB17A9F3C0DE02
:1003F000883819F0893819F003C097DE01C09DDEF6
:100400000895FF935F93552729D0EF3F89F0ED3092
:10041000D1F3E0535E0F22D0ED30E1F0E053FE2F38
:10042000E35008F005C0513019F45AE05F0F12C0D4
:100430000AB10F7E0AB9F5E415D0F2E713D012D055
:10044000FFE610D0F2E70ED0FDE00CD00AB100615B
:100450000AB9D9CF752F5F91FF9108955F9BFECFA9
:1004600005D00895FCB95D9BFECF0895FBB1ECB1BA
:10047000F47109F401C0EFEF08950EB503600EBDED
:1004800030FD712F072F7A5038F0703059F17130EC
:1004900059F1723059F12CC0702F793009F1783050
:1004A000E9F07730C9F07630A9F0753089F0743012
:1004B00069F0733049F0723029F0713009F018C0DA
:1004C00075D116C0A8D114C06CD012C0CAD010C04B
:1004D0000DD10EC02CD20CC076D00AC054D308C0A7
:1004E000D3D206C08CD004C074D002C09DD300C04B
:1004F0000EB5087F0EBD16E005DE30FD89E830FF41
:1005000080EC7DDE08950EB503600EBD0C2FCA5041
:1005100038F0C03059F1C13061F1C23069F1E8CF33
:10052000C02FC93009F1C830E9F0C730C9F0C63072
:10053000A9F0C53089F0C43069F0C33049F0C23049
:1005400029F0C13009F0D4CF31D119C064D117C01E
:1005500028D015C086D013C0C9D011C0E8D10FC0B3
:1005600032D00DC010D30BC08FD209C0C02F47D0DE
:1005700006C0C02F2ED003C0C02F56D300C00EB56A
:10058000087F0EBD08950ABD00E00DBD0CBD03B788
:10059000046003BF012F0030F1F703B7087F03BFEA
:1005A00008951F9312E007E0EEDF13E005E0EBDFB4
:1005B00014E003E0E8DF18E002E0E5DF13E005E027
:1005C000E2DF1F9108951F9319E00CEADCDF1F9111
:1005D00008951F9312E002E8D6DF0EE1D4DF06E9AA
:1005E000D2DF0EE1D0DF02E8CEDF0EE1CCDF06E99C
:1005F000CADF0EE1C8DF02E8C6DF1F91089514E0EC
:1006000023D00EE1C0DF0EE1BEDF0EE1BCDF02E170
:10061000BADF02E1B8DF01E1B6DF0DE0B4DF0FE0E1
:10062000B2DF0FE0B0DF0BE1AEDF0BE1ACDF01E1E9
:10063000AADF01E1A8DF02E1A6DF04E1A4DF06E111
:10064000A2DF02D010E008950EE19DDF02E19BDF02
:1006500002E199DF04E197DF02E195DF06E193DF34
:10066000089516E037D006E18EDF08E18CDF12E056
:1006700049DD16E00EE12ED004E185DF12E042DD17
:1006800016E006E180DF12E03DDD16E00EE17BDFE3
:100690000EE179DF0EE177DF02E175DF06E173DF5E
:1006A00008E171DF0BE16FDF12E02CDD16E001E104
:1006B0006ADF01E168DF02E166DF12E023DD16E0B8
:1006C00006E161DF04E15FDF06E15DDF12E01ADDD4
:1006D00010E008950EE157DF0EE155DF0BE153DF27
:1006E0000EE151DF12E00EDD16E0089514E0B2E0F5
:1006F00006E149DF0EE147DF11E004DD14E0BA95C1
:10070000B9F706E140DF08E13EDF08E13CDFB2E097
:1007100008E139DF0EE137DF11E0F4DC14E0BA95CF
:10072000B9F708E130DF06E12EDF06E12CDFB2E0A9
:1007300006E129DF0EE127DF11E0E4DC14E0BA95E1
:10074000B9F706E120DF08E11EDF08E11CDFB2E0B7
:1007500008E119DF0EE117DFBA95D1F708E113DFE1
:1007600006E111DF14E0CEDC14E0B2E013E006E1B4
:100770000ADF75E004E107DF7A95E1F774E003E151
:1007800002DF7A95E1F714E003E1FDDE03E1FBDE31
:1007900004E1F9DE06E1F7DE08E1F5DE06E1F3DE6D
:1007A00006E1F1DEBA9511F710E0089514E0B2E029
:1007B00025D002E1E8DE02E1E6DE11E0A3DC14E090
:1007C000BA95B1F706E1DFDE02E1DDDE02E1DBDE54
:1007D00011E098DC14E006E1D6DE08E1D4DE04E1A5
:1007E000D2DE11E08FDC14E004E1CDDE08E1CBDEE7
:1007F00005D00EE1C8DE0EE1C6DE089504E1C3DED9
:1008000006E1C1DE08E1BFDE11E07CDC14E00BE1B3
:10081000BADE10E0089515E004E1B5DE08E1B3DECC
:1008200004E1B1DE08E1AFDE13E004E1ACDE04E197
:10083000AADE15E006E1A7DE08E1A5DE0BE1A3DEF6
:1008400008E1A1DE04E19FDE12E05CDC15E064D08B
:1008500011E058DC15E004E196DE0BE194DE04E1E2
:1008600092DE0BE190DE04E18EDE06E18CDE08E133
:100870008ADE0BE188DE0EE186DE08E184DE04E13B
:1008800082DE12E03FDC15E014E046D013E03ADCF3
:1008900014E004E178DE04E176DE02E174DE04E1D6
:1008A00072DE08E170DE08E16EDE02E16CDE04E17A
:1008B0006ADE12E027DC14E00EE165DE0EE163DEA5
:1008C00006E161DE04E15FDE02E15DDE02E15BDEA6
:1008D00004E159DE06E157DE12E014DC15E008E120
:1008E00052DE08E150DE06E14EDE08E14CDE04E1B6
:1008F0004ADE12E007DC15E006E145DE13E002DC2B
:1009000015E008E140DE13E0FDDB15E00EE13BDE23
:1009100014E0F8DB10E008950BE135DE08E133DE8A
:100920000BE131DE08E12FDE04E12DDE089513E056
:1009300004E129DE08E127DE02E125DE11E0E2DB49
:1009400013E004E120DE11E0DDDB13E00BE11BDE50
:1009500011E0D8DB13E006E116DE11E0D3DB13E093
:1009600008E111DE11E0CEDB13E00BE10CDE11E05B
:10097000C9DB13E00EE107DE12E0C4DB13E008E19F
:1009800002DE04E100DE02E1FEDD11E0BBDB13E08C
:1009900002E1F9DD11E0B6DB13E002E1F4DD00E194
:1009A000F2DD11E0AFDB13E00DE0EDDD0FE0EBDD9C
:1009B00000E1E9DD11E0A6DB13E002E1E4DD11E096
:1009C000A1DB13E00FE0DFDD11E09CDB13E004E1CD
:1009D000DADD12E097DB13E002E1D5DD11E092DB16
:1009E00013E000E1D0DD11E08DDB13E00FE0CBDDA3
:1009F00011E088DB13E000E1C6DD02E1C4DD11E0B7
:100A000081DB13E008E1BFDD04E1BDDD11E07ADB4D
:100A100013E006E1B8DD11E075DB13E002E1B3DDC0
:100A200012E070DB13E000E1AEDD02E1ACDD0FE0CF
:100A3000AADD11E067DB13E004E1A5DD00E1A3DD41
:100A400011E060DB13E002E19EDD11E05BDB13E00F
:100A500002E199DD11E056DB13E004E194DD0BE1E6
:100A600092DD11E04FDB13E008E18DDD11E04ADBA0
:100A700013E00BE188DD11E045DB13E00EE183DDDF
:100A800012E040DB10E0089513E059D004E17BDD73
:100A900011E038DB13E006E176DD11E033DB13E033
:100AA00004E171DD03E16FDD12E02CDB13E004E112
:100AB0006ADD12E027DB13E054D00BE164DD09E1CD
:100AC00062DD12E01FDB13E006E15DDD12E01ADB00
:100AD00013E004E158DD12E015DB13E009E153DD1A
:100AE00012E010DB13E02BD004E14DDD06E14BDD1D
:100AF00004E149DD12E006DB13E003E144DD11E02F
:100B000001DB13E004E13FDD12E0FCDA13E029D061
:100B10000BE139DD11E0F6DA13E009E134DD11E033
:100B2000F1DA13E006E12FDD12E0ECDA13E004E184
:100B30002ADD09E128DD12E0E5DA10E008950EE192
:100B400022DD09E120DD12E0DDDA13E004E11BDD46
:100B500011E0D8DA13E004E116DD11E0D3DA13E096
:100B600008950FE010DD09E10EDD12E0CBDA13E0AD
:100B70000BE109DD11E0C6DA13E00BE104DD12E060
:100B8000C1DA13E0089513E004E1FDDC11E0BADA04
:100B900013E008E1F8DC11E0B5DA13E008E1F3DC7A
:100BA00011E0B0DA13E004E1EEDC08E1ECDC11E086
:100BB000A9DA13E008E1E7DC12E0A4DA13E004E1CB
:100BC000E2DC11E09FDA13E01AD000E1DCDC11E096
:100BD00099DA13E00FE0D7DC00E1D5DC02E1D3DCE9
:100BE00008E1D1DC11E08EDA13E008E1CCDC12E0A0
:100BF00089DA13E004E1C7DC02D010E0089506E1D1
:100C0000C2DC11E07FDA13E008E1BDDC11E07ADA42
:100C100013E00BE1B8DC11E075DA13E00EE1B3DCB0
:100C200012E070DA13E0089513E04FD00EE1ABDC70
:100C300012E068DA13E00EE1A6DC0EE1A4DC11E0BC
:100C400061DA13E057D00BE19EDC12E05BDA13E0CF
:100C500066D008E198DC12E055DA13E00FE093DC8F
:100C600073D033D00EE18FDC12E04CDA13E02DD0DC
:100C70000BE189DC12E046DA13E051D00FE083DCAF
:100C800011E040DA13E00FE07EDC11E03BDA13E024
:100C90000FE079DC11E036DA13E00FE074DC12E0EB
:100CA00031DA13E00DE06FDC4FD066D011E02ADAC4
:100CB00012E00FE068DC26DA5FD011E023DA12E000
:100CC00006E161DC1FDA10E008950EE15CDC11E062
:100CD00019DA13E002E157DC11E014DA13E004E161
:100CE00052DC11E00FDA13E006E14DDC11E00ADA24
:100CF00013E008950EE147DC11E004DA13E002E1AD
:100D000042DC11E0FFD913E004E13DDC11E0FAD947
:100D100013E006E138DC11E0F5D913E008950BE1AA
:100D200032DC11E0EFD913E000E12DDC11E0EAD96B
:100D300013E002E128DC11E0E5D913E004E123DC53
:100D400011E0E0D913E0089511E0DCD913E00FE0E1
:100D50001ADC11E0D7D913E000E115DC11E0D2D99B
:100D600013E004E110DC11E0CDD913E002E10BDC6B
:100D700012E0C8D913E0089512E002E104DC11E0AA
:100D8000C1D912E002E1FFDB11E0BCD912E002E1BF
:100D9000FADB11E0B7D912E002E1F5DB11E0B2D9DC
:100DA00012E002E1F0DB11E0ADD912E002E1EBDB91
:100DB00012E0A8D912E002E1E6DB11E0A3D912E0CB
:100DC0000FE0E1DB11E09ED912E006E1DCDB11E08F
:100DD00099D912E004E1D7DB02E1D5DB12E092D928
:100DE00012E0B5E000E1CFDB11E08CD912E0BA955A
:100DF000C9F702E1C8DB11E085D912E002E1C3DBEB
:100E000012E080D912E0B3E002E1BDDB11E07AD953
:100E100012E0BA95C9F704E1B6DB11E073D912E02C
:100E200004E1B1DB11E06ED912E002E1ACDB11E0CC
:100E300069D912E004E1A7DB12E064D912E0089559
:100E40000F931F9357D9829B01C002C020E001C0BD
:100E500021E01F910F9118950F931F938F934AD9FB
:100E60005BD9DD27FCE061D921E080ECC8D98F9106
:0A0E70001F910F9118950A9518952F
:00000001FF
