:020000020000FC
:1000000014C0189518951895189518951895189561
:100010001895189518951895189518952FC0189536
:10002000189518951895189518950FE50DBF02E0CD
:100030000EBFBB9A06B1046006B907B1006407B9E8
:100040003D9A339A00B7006000BF359A07B1007E31
:10005000036007B903B7087F056003BF03B7077BD9
:10006000086403BF03B70F7C006303BF0FEF0CBF2F
:100070007894379B379A369B369AFBCF0F9305B10E
:060080000CBF0F91189562
:00000001FF
